{
  "contractName": "Main",
  "abi": [
    {
      "constant": true,
      "inputs": [
        {
          "name": "_interfaceId",
          "type": "bytes4"
        }
      ],
      "name": "supportsInterface",
      "outputs": [
        {
          "name": "",
          "type": "bool"
        }
      ],
      "payable": false,
      "stateMutability": "view",
      "type": "function",
      "signature": "0x01ffc9a7"
    },
    {
      "constant": true,
      "inputs": [],
      "name": "name",
      "outputs": [
        {
          "name": "_name",
          "type": "string"
        }
      ],
      "payable": false,
      "stateMutability": "view",
      "type": "function",
      "signature": "0x06fdde03"
    },
    {
      "constant": true,
      "inputs": [
        {
          "name": "_tokenId",
          "type": "uint256"
        }
      ],
      "name": "getApproved",
      "outputs": [
        {
          "name": "_operator",
          "type": "address"
        }
      ],
      "payable": false,
      "stateMutability": "view",
      "type": "function",
      "signature": "0x081812fc"
    },
    {
      "constant": false,
      "inputs": [
        {
          "name": "_to",
          "type": "address"
        },
        {
          "name": "_tokenId",
          "type": "uint256"
        }
      ],
      "name": "approve",
      "outputs": [],
      "payable": false,
      "stateMutability": "nonpayable",
      "type": "function",
      "signature": "0x095ea7b3"
    },
    {
      "constant": true,
      "inputs": [],
      "name": "totalSupply",
      "outputs": [
        {
          "name": "",
          "type": "uint256"
        }
      ],
      "payable": false,
      "stateMutability": "view",
      "type": "function",
      "signature": "0x18160ddd"
    },
    {
      "constant": true,
      "inputs": [
        {
          "name": "_owner",
          "type": "address"
        },
        {
          "name": "_index",
          "type": "uint256"
        }
      ],
      "name": "tokenOfOwnerByIndex",
      "outputs": [
        {
          "name": "_tokenId",
          "type": "uint256"
        }
      ],
      "payable": false,
      "stateMutability": "view",
      "type": "function",
      "signature": "0x2f745c59"
    },
    {
      "constant": true,
      "inputs": [
        {
          "name": "_spender",
          "type": "address"
        },
        {
          "name": "_tokenId",
          "type": "uint256"
        }
      ],
      "name": "isApprovedOrOwner",
      "outputs": [
        {
          "name": "",
          "type": "bool"
        }
      ],
      "payable": false,
      "stateMutability": "view",
      "type": "function",
      "signature": "0x430c2081"
    },
    {
      "constant": true,
      "inputs": [
        {
          "name": "_tokenId",
          "type": "uint256"
        }
      ],
      "name": "exists",
      "outputs": [
        {
          "name": "_exists",
          "type": "bool"
        }
      ],
      "payable": false,
      "stateMutability": "view",
      "type": "function",
      "signature": "0x4f558e79"
    },
    {
      "constant": true,
      "inputs": [
        {
          "name": "_index",
          "type": "uint256"
        }
      ],
      "name": "tokenByIndex",
      "outputs": [
        {
          "name": "",
          "type": "uint256"
        }
      ],
      "payable": false,
      "stateMutability": "view",
      "type": "function",
      "signature": "0x4f6ccce7"
    },
    {
      "constant": true,
      "inputs": [
        {
          "name": "_tokenId",
          "type": "uint256"
        }
      ],
      "name": "ownerOf",
      "outputs": [
        {
          "name": "_owner",
          "type": "address"
        }
      ],
      "payable": false,
      "stateMutability": "view",
      "type": "function",
      "signature": "0x6352211e"
    },
    {
      "constant": true,
      "inputs": [
        {
          "name": "_owner",
          "type": "address"
        }
      ],
      "name": "balanceOf",
      "outputs": [
        {
          "name": "_balance",
          "type": "uint256"
        }
      ],
      "payable": false,
      "stateMutability": "view",
      "type": "function",
      "signature": "0x70a08231"
    },
    {
      "constant": false,
      "inputs": [],
      "name": "renounceOwnership",
      "outputs": [],
      "payable": false,
      "stateMutability": "nonpayable",
      "type": "function",
      "signature": "0x715018a6"
    },
    {
      "constant": true,
      "inputs": [],
      "name": "owner",
      "outputs": [
        {
          "name": "",
          "type": "address"
        }
      ],
      "payable": false,
      "stateMutability": "view",
      "type": "function",
      "signature": "0x8da5cb5b"
    },
    {
      "constant": true,
      "inputs": [],
      "name": "isOwner",
      "outputs": [
        {
          "name": "",
          "type": "bool"
        }
      ],
      "payable": false,
      "stateMutability": "view",
      "type": "function",
      "signature": "0x8f32d59b"
    },
    {
      "constant": true,
      "inputs": [],
      "name": "symbol",
      "outputs": [
        {
          "name": "_symbol",
          "type": "string"
        }
      ],
      "payable": false,
      "stateMutability": "view",
      "type": "function",
      "signature": "0x95d89b41"
    },
    {
      "constant": false,
      "inputs": [
        {
          "name": "_to",
          "type": "address"
        },
        {
          "name": "_approved",
          "type": "bool"
        }
      ],
      "name": "setApprovalForAll",
      "outputs": [],
      "payable": false,
      "stateMutability": "nonpayable",
      "type": "function",
      "signature": "0xa22cb465"
    },
    {
      "constant": true,
      "inputs": [
        {
          "name": "_owner",
          "type": "address"
        },
        {
          "name": "_operator",
          "type": "address"
        }
      ],
      "name": "isApprovedForAll",
      "outputs": [
        {
          "name": "",
          "type": "bool"
        }
      ],
      "payable": false,
      "stateMutability": "view",
      "type": "function",
      "signature": "0xe985e9c5"
    },
    {
      "constant": false,
      "inputs": [
        {
          "name": "newOwner",
          "type": "address"
        }
      ],
      "name": "transferOwnership",
      "outputs": [],
      "payable": false,
      "stateMutability": "nonpayable",
      "type": "function",
      "signature": "0xf2fde38b"
    },
    {
      "inputs": [],
      "payable": false,
      "stateMutability": "nonpayable",
      "type": "constructor",
      "signature": "constructor"
    },
    {
      "anonymous": false,
      "inputs": [
        {
          "indexed": true,
          "name": "previousOwner",
          "type": "address"
        },
        {
          "indexed": true,
          "name": "newOwner",
          "type": "address"
        }
      ],
      "name": "OwnershipTransferred",
      "type": "event",
      "signature": "0x8be0079c531659141344cd1fd0a4f28419497f9722a3daafe3b4186f6b6457e0"
    },
    {
      "anonymous": false,
      "inputs": [
        {
          "indexed": true,
          "name": "_from",
          "type": "address"
        },
        {
          "indexed": true,
          "name": "_to",
          "type": "address"
        },
        {
          "indexed": true,
          "name": "_tokenId",
          "type": "uint256"
        }
      ],
      "name": "Transfer",
      "type": "event",
      "signature": "0xddf252ad1be2c89b69c2b068fc378daa952ba7f163c4a11628f55a4df523b3ef"
    },
    {
      "anonymous": false,
      "inputs": [
        {
          "indexed": true,
          "name": "_owner",
          "type": "address"
        },
        {
          "indexed": true,
          "name": "_approved",
          "type": "address"
        },
        {
          "indexed": true,
          "name": "_tokenId",
          "type": "uint256"
        }
      ],
      "name": "Approval",
      "type": "event",
      "signature": "0x8c5be1e5ebec7d5bd14f71427d1e84f3dd0314c0f7b2291e5b200ac8c7c3b925"
    },
    {
      "anonymous": false,
      "inputs": [
        {
          "indexed": true,
          "name": "_owner",
          "type": "address"
        },
        {
          "indexed": true,
          "name": "_operator",
          "type": "address"
        },
        {
          "indexed": false,
          "name": "_approved",
          "type": "bool"
        }
      ],
      "name": "ApprovalForAll",
      "type": "event",
      "signature": "0x17307eab39ab6107e8899845ad3d59bd9653f200f220920489ca2b5937696c31"
    },
    {
      "constant": true,
      "inputs": [
        {
          "name": "butterflyId",
          "type": "uint256"
        }
      ],
      "name": "getButterflyInfo",
      "outputs": [
        {
          "name": "gene",
          "type": "uint64"
        },
        {
          "name": "createdTimestamp",
          "type": "uint64"
        },
        {
          "name": "lastTimestamp",
          "type": "uint64"
        },
        {
          "name": "numOwners",
          "type": "uint160"
        }
      ],
      "payable": false,
      "stateMutability": "view",
      "type": "function",
      "signature": "0x5c18327a"
    },
    {
      "constant": true,
      "inputs": [
        {
          "name": "butterflyId",
          "type": "uint256"
        },
        {
          "name": "index",
          "type": "uint160"
        }
      ],
      "name": "getButterflyOwnerByIndex",
      "outputs": [
        {
          "name": "",
          "type": "address"
        }
      ],
      "payable": false,
      "stateMutability": "view",
      "type": "function",
      "signature": "0xefee83c4"
    },
    {
      "constant": true,
      "inputs": [
        {
          "name": "heartId",
          "type": "uint256"
        }
      ],
      "name": "getHeartInfo",
      "outputs": [
        {
          "name": "butterflyId",
          "type": "uint256"
        },
        {
          "name": "gene",
          "type": "uint64"
        },
        {
          "name": "snapshotTimestamp",
          "type": "uint64"
        },
        {
          "name": "numOwners",
          "type": "uint160"
        }
      ],
      "payable": false,
      "stateMutability": "view",
      "type": "function",
      "signature": "0xb0b9615b"
    },
    {
      "constant": true,
      "inputs": [
        {
          "name": "heartId",
          "type": "uint256"
        },
        {
          "name": "index",
          "type": "uint160"
        }
      ],
      "name": "getHeartOwnerByIndex",
      "outputs": [
        {
          "name": "",
          "type": "address"
        }
      ],
      "payable": false,
      "stateMutability": "view",
      "type": "function",
      "signature": "0x272bea30"
    },
    {
      "constant": true,
      "inputs": [
        {
          "name": "flowerAddress",
          "type": "address"
        }
      ],
      "name": "getFlowerInfo",
      "outputs": [
        {
          "name": "isClaimed",
          "type": "bool"
        },
        {
          "name": "gene",
          "type": "uint64"
        },
        {
          "name": "gardenTimezone",
          "type": "uint64"
        },
        {
          "name": "createdTimestamp",
          "type": "uint64"
        },
        {
          "name": "flowerIndex",
          "type": "uint160"
        }
      ],
      "payable": false,
      "stateMutability": "view",
      "type": "function",
      "signature": "0x1702db96"
    },
    {
      "constant": true,
      "inputs": [
        {
          "name": "butterflyId",
          "type": "uint256"
        },
        {
          "name": "receiver",
          "type": "address"
        }
      ],
      "name": "canReceiveButterfly",
      "outputs": [
        {
          "name": "",
          "type": "bool"
        }
      ],
      "payable": false,
      "stateMutability": "view",
      "type": "function",
      "signature": "0xf959c9dd"
    },
    {
      "constant": false,
      "inputs": [
        {
          "name": "_from",
          "type": "address"
        },
        {
          "name": "_to",
          "type": "address"
        },
        {
          "name": "_tokenId",
          "type": "uint256"
        }
      ],
      "name": "transferFrom",
      "outputs": [],
      "payable": false,
      "stateMutability": "nonpayable",
      "type": "function",
      "signature": "0x23b872dd"
    },
    {
      "constant": false,
      "inputs": [
        {
          "name": "_from",
          "type": "address"
        },
        {
          "name": "_to",
          "type": "address"
        },
        {
          "name": "_tokenId",
          "type": "uint256"
        },
        {
          "name": "_data",
          "type": "bytes"
        }
      ],
      "name": "safeTransferFrom",
      "outputs": [],
      "payable": false,
      "stateMutability": "nonpayable",
      "type": "function",
      "signature": "0xb88d4fde"
    },
    {
      "constant": false,
      "inputs": [
        {
          "name": "_from",
          "type": "address"
        },
        {
          "name": "_to",
          "type": "address"
        },
        {
          "name": "_tokenId",
          "type": "uint256"
        }
      ],
      "name": "safeTransferFrom",
      "outputs": [],
      "payable": false,
      "stateMutability": "nonpayable",
      "type": "function",
      "signature": "0x42842e0e"
    },
    {
      "constant": true,
      "inputs": [
        {
          "name": "_tokenId",
          "type": "uint256"
        }
      ],
      "name": "tokenURI",
      "outputs": [
        {
          "name": "",
          "type": "string"
        }
      ],
      "payable": false,
      "stateMutability": "view",
      "type": "function",
      "signature": "0xc87b56dd"
    },
    {
      "constant": true,
      "inputs": [
        {
          "name": "accountAddress",
          "type": "address"
        }
      ],
      "name": "accountURI",
      "outputs": [
        {
          "name": "",
          "type": "string"
        }
      ],
      "payable": false,
      "stateMutability": "view",
      "type": "function",
      "signature": "0x33dfa7d5"
    },
    {
      "constant": true,
      "inputs": [],
      "name": "accountZeroURI",
      "outputs": [
        {
          "name": "",
          "type": "string"
        }
      ],
      "payable": false,
      "stateMutability": "view",
      "type": "function",
      "signature": "0x267baef8"
    },
    {
      "constant": true,
      "inputs": [
        {
          "name": "gene",
          "type": "uint64"
        },
        {
          "name": "isAlive",
          "type": "bool"
        }
      ],
      "name": "getButterflyURIFromGene",
      "outputs": [
        {
          "name": "",
          "type": "string"
        }
      ],
      "payable": false,
      "stateMutability": "view",
      "type": "function",
      "signature": "0xefce165c"
    },
    {
      "constant": false,
      "inputs": [
        {
          "name": "gardenTimezone",
          "type": "uint64"
        }
      ],
      "name": "claim",
      "outputs": [],
      "payable": false,
      "stateMutability": "nonpayable",
      "type": "function",
      "signature": "0xaab8ab0c"
    },
    {
      "constant": false,
      "inputs": [
        {
          "name": "_tokenId",
          "type": "uint256"
        }
      ],
      "name": "burn",
      "outputs": [],
      "payable": false,
      "stateMutability": "nonpayable",
      "type": "function",
      "signature": "0x42966c68"
    },
    {
      "constant": true,
      "inputs": [
        {
          "name": "tokenType",
          "type": "uint8"
        },
        {
          "name": "_owner",
          "type": "address"
        }
      ],
      "name": "typedBalanceOf",
      "outputs": [
        {
          "name": "",
          "type": "uint256"
        }
      ],
      "payable": false,
      "stateMutability": "view",
      "type": "function",
      "signature": "0x5949a13e"
    },
    {
      "constant": true,
      "inputs": [
        {
          "name": "tokenType",
          "type": "uint8"
        }
      ],
      "name": "typedTotalSupply",
      "outputs": [
        {
          "name": "",
          "type": "uint256"
        }
      ],
      "payable": false,
      "stateMutability": "view",
      "type": "function",
      "signature": "0x8aa54fcb"
    },
    {
      "constant": true,
      "inputs": [
        {
          "name": "tokenType",
          "type": "uint8"
        },
        {
          "name": "_owner",
          "type": "address"
        },
        {
          "name": "_index",
          "type": "uint256"
        }
      ],
      "name": "typedTokenOfOwnerByIndex",
      "outputs": [
        {
          "name": "",
          "type": "uint256"
        }
      ],
      "payable": false,
      "stateMutability": "view",
      "type": "function",
      "signature": "0x3d40eda7"
    },
    {
      "constant": true,
      "inputs": [
        {
          "name": "tokenType",
          "type": "uint8"
        },
        {
          "name": "_index",
          "type": "uint256"
        }
      ],
      "name": "typedTokenByIndex",
      "outputs": [
        {
          "name": "",
          "type": "uint256"
        }
      ],
      "payable": false,
      "stateMutability": "view",
      "type": "function",
      "signature": "0x41b572fa"
    },
    {
      "constant": true,
      "inputs": [],
      "name": "totalFlowers",
      "outputs": [
        {
          "name": "",
          "type": "uint160"
        }
      ],
      "payable": false,
      "stateMutability": "view",
      "type": "function",
      "signature": "0xebb1c869"
    },
    {
      "constant": true,
      "inputs": [
        {
          "name": "index",
          "type": "uint160"
        }
      ],
      "name": "getFlowerByIndex",
      "outputs": [
        {
          "name": "",
          "type": "address"
        }
      ],
      "payable": false,
      "stateMutability": "view",
      "type": "function",
      "signature": "0x39d93a7f"
    },
    {
      "constant": false,
      "inputs": [
        {
          "name": "weight",
          "type": "uint16"
        },
        {
          "name": "uri",
          "type": "string"
        }
      ],
      "name": "addFlowerURI",
      "outputs": [],
      "payable": false,
      "stateMutability": "nonpayable",
      "type": "function",
      "signature": "0x154cf36e"
    },
    {
      "constant": false,
      "inputs": [
        {
          "name": "uri",
          "type": "string"
        }
      ],
      "name": "setWhiteFlowerURI",
      "outputs": [],
      "payable": false,
      "stateMutability": "nonpayable",
      "type": "function",
      "signature": "0x19e36751"
    },
    {
      "constant": false,
      "inputs": [
        {
          "name": "weight",
          "type": "uint16"
        },
        {
          "name": "liveUri",
          "type": "string"
        },
        {
          "name": "deadUri",
          "type": "string"
        },
        {
          "name": "heartUri",
          "type": "string"
        }
      ],
      "name": "addButterflyURI",
      "outputs": [],
      "payable": false,
      "stateMutability": "nonpayable",
      "type": "function",
      "signature": "0xc386ab36"
    }
  ],
  "bytecode": "0x60806040523480156200001157600080fd5b50604080518082018252600f81527f4c6974746c65427574746572666c7900000000000000000000000000000000006020808301919091528251808401909352600483527f42464c59000000000000000000000000000000000000000000000000000000009083015290620000af7f01ffc9a700000000000000000000000000000000000000000000000000000000640100000000620002d6810204565b620000e37f80ac58cd00000000000000000000000000000000000000000000000000000000640100000000620002d6810204565b73__ERC721Manager_________________________63fbfb2dc4600584846040518463ffffffff167c0100000000000000000000000000000000000000000000000000000000028152600401808481526020018060200180602001838103835285818151815260200191508051906020019080838360005b83811015620001755781810151838201526020016200015b565b50505050905090810190601f168015620001a35780820380516001836020036101000a031916815260200191505b50838103825284518152845160209182019186019080838360005b83811015620001d8578181015183820152602001620001be565b50505050905090810190601f168015620002065780820380516001836020036101000a031916815260200191505b509550505050505060006040518083038186803b1580156200022757600080fd5b505af41580156200023c573d6000803e3d6000fd5b505060118054600160a060020a031916331790819055604051600160a060020a03919091169450600093507f8be0079c531659141344cd1fd0a4f28419497f9722a3daafe3b4186f6b6457e09250839150a3601280543367ffffffffffffffff9081166801000000000000000002604060020a608060020a0319429290921667ffffffffffffffff19909316929092171617905562000343565b7fffffffff0000000000000000000000000000000000000000000000000000000080821614156200030657600080fd5b7fffffffff00000000000000000000000000000000000000000000000000000000166000908152602081905260409020805460ff19166001179055565b612b7180620003536000396000f3006080604052600436106102035763ffffffff7c010000000000000000000000000000000000000000000000000000000060003504166301ffc9a7811461020857806306fdde0314610256578063081812fc146102e0578063095ea7b314610321578063154cf36e146103545780631702db961461037c57806318160ddd146103fa57806319e367511461042157806323b872dd14610441578063267baef814610478578063272bea301461048d5780632f745c59146104be57806333dfa7d5146104ef57806339d93a7f1461051d5780633d40eda71461054b57806341b572fa1461058257806342842e0e146105a057806342966c68146105d7578063430c2081146105ef5780634f558e79146106205780634f6ccce7146106385780635949a13e146106505780635c18327a146106845780636352211e146106e757806370a08231146106ff578063715018a61461072d5780638aa54fcb146107425780638da5cb5b1461075d5780638f32d59b1461077257806395d89b4114610787578063a22cb4651461079c578063aab8ab0c146107cf578063b0b9615b146107f1578063b88d4fde14610851578063c386ab36146108cd578063c87b56dd1461090d578063e985e9c514610925578063ebb1c86914610959578063efce165c1461096e578063efee83c414610995578063f2fde38b146109c6578063f959c9dd146109f4575b600080fd5b34801561021457600080fd5b506102427fffffffff0000000000000000000000000000000000000000000000000000000060043516610a25565b604080519115158252519081900360200190f35b34801561026257600080fd5b5061026b610af0565b6040805160208082528351818301528351919283929083019185019080838360005b838110156102a557818101518382015260200161028d565b50505050905090810190601f1680156102d25780820380516001836020036101000a031916815260200191505b509250505060405180910390f35b3480156102ec57600080fd5b506102f8600435610ba4565b6040805173ffffffffffffffffffffffffffffffffffffffff9092168252519081900360200190f35b34801561032d57600080fd5b5061035273ffffffffffffffffffffffffffffffffffffffff60043516602435610c1a565b005b34801561036057600080fd5b506103526004803561ffff169060248035908101910135610cc4565b34801561038857600080fd5b506103aa73ffffffffffffffffffffffffffffffffffffffff60043516610d8f565b60408051951515865267ffffffffffffffff9485166020870152928416858401529216606084015273ffffffffffffffffffffffffffffffffffffffff9091166080830152519081900360a00190f35b34801561040657600080fd5b5061040f610e8a565b60408051918252519081900360200190f35b34801561042d57600080fd5b506103526004803560248101910135610f29565b34801561044d57600080fd5b5061035273ffffffffffffffffffffffffffffffffffffffff60043581169060243516604435610fc8565b34801561048457600080fd5b5061026b61106a565b34801561049957600080fd5b506102f860043573ffffffffffffffffffffffffffffffffffffffff60243516611183565b3480156104ca57600080fd5b5061040f73ffffffffffffffffffffffffffffffffffffffff60043516602435611248565b3480156104fb57600080fd5b5061026b73ffffffffffffffffffffffffffffffffffffffff600435166112da565b34801561052957600080fd5b506102f873ffffffffffffffffffffffffffffffffffffffff60043516611411565b34801561055757600080fd5b5061040f60ff6004351673ffffffffffffffffffffffffffffffffffffffff6024351660443561149c565b34801561058e57600080fd5b5061040f60ff6004351660243561156b565b3480156105ac57600080fd5b5061035273ffffffffffffffffffffffffffffffffffffffff600435811690602435166044356115ea565b3480156105e357600080fd5b5061035260043561168c565b3480156105fb57600080fd5b5061024273ffffffffffffffffffffffffffffffffffffffff6004351660243561187c565b34801561062c57600080fd5b5061024260043561190e565b34801561064457600080fd5b5061040f600435611984565b34801561065c57600080fd5b5061040f60ff6004351673ffffffffffffffffffffffffffffffffffffffff602435166119fa565b34801561069057600080fd5b5061069c600435611a8e565b6040805167ffffffffffffffff95861681529385166020850152919093168282015273ffffffffffffffffffffffffffffffffffffffff909216606082015290519081900360800190f35b3480156106f357600080fd5b506102f8600435611b54565b34801561070b57600080fd5b5061040f73ffffffffffffffffffffffffffffffffffffffff60043516611bca565b34801561073957600080fd5b50610352611c55565b34801561074e57600080fd5b5061040f60ff60043516611cd7565b34801561076957600080fd5b506102f8611d4f565b34801561077e57600080fd5b50610242611d6b565b34801561079357600080fd5b5061026b611d89565b3480156107a857600080fd5b5061035273ffffffffffffffffffffffffffffffffffffffff600435166024351515611e08565b3480156107db57600080fd5b5061035267ffffffffffffffff60043516611e97565b3480156107fd57600080fd5b50610809600435611fe4565b6040805194855267ffffffffffffffff9384166020860152919092168382015273ffffffffffffffffffffffffffffffffffffffff9091166060830152519081900360800190f35b34801561085d57600080fd5b50604080516020601f6064356004818101359283018490048402850184019095528184526103529473ffffffffffffffffffffffffffffffffffffffff813581169560248035909216956044359536956084940191819084018382808284375094975061205e9650505050505050565b3480156108d957600080fd5b506103526004803561ffff1690602480358082019290810135916044358082019290810135916064359081019101356121ce565b34801561091957600080fd5b5061026b6004356122de565b34801561093157600080fd5b5061024273ffffffffffffffffffffffffffffffffffffffff600435811690602435166124b0565b34801561096557600080fd5b506102f8612543565b34801561097a57600080fd5b5061026b67ffffffffffffffff6004351660243515156125b1565b3480156109a157600080fd5b506102f860043573ffffffffffffffffffffffffffffffffffffffff602435166126e5565b3480156109d257600080fd5b5061035273ffffffffffffffffffffffffffffffffffffffff60043516612777565b348015610a0057600080fd5b5061024260043573ffffffffffffffffffffffffffffffffffffffff60243516612796565b604080517f9cdfd192000000000000000000000000000000000000000000000000000000008152600560048201527fffffffff0000000000000000000000000000000000000000000000000000000083166024820152905160009173__ERC721Manager_________________________91639cdfd19291604480820192602092909190829003018186803b158015610abc57600080fd5b505af4158015610ad0573d6000803e3d6000fd5b505050506040513d6020811015610ae657600080fd5b505190505b919050565b600a8054604080516020601f60027fffffffffffffffffffffffffffffffffffffffffffffffffffffffffffffffff610100600188161502019095169490940493840181900481028201810190925282815260609390929091830182828015610b9a5780601f10610b6f57610100808354040283529160200191610b9a565b820191906000526020600020905b815481529060010190602001808311610b7d57829003601f168201915b5050505050905090565b600073__ERC721Manager_________________________63338508d56005846040518363ffffffff167c0100000000000000000000000000000000000000000000000000000000028152600401808381526020018281526020019250505060206040518083038186803b158015610abc57600080fd5b604080517f6715cf2b0000000000000000000000000000000000000000000000000000000081526005600482015273ffffffffffffffffffffffffffffffffffffffff8416602482015260448101839052905173__ERC721Manager_________________________91636715cf2b916064808301926000929190829003018186803b158015610ca857600080fd5b505af4158015610cbc573d6000803e3d6000fd5b505050505050565b610ccc611d6b565b1515610cd757600080fd5b6040517f853a802200000000000000000000000000000000000000000000000000000000815260126004820181815261ffff861660248401526060604484019081526064840185905273__GameDataLib___________________________9363853a80229392889288928892919060840184848082843782019150509550505050505060006040518083038186803b158015610d7257600080fd5b505af4158015610d86573d6000803e3d6000fd5b50505050505050565b600080600080600073__GameDataLib___________________________635729d1856012886040518363ffffffff167c0100000000000000000000000000000000000000000000000000000000028152600401808381526020018273ffffffffffffffffffffffffffffffffffffffff1673ffffffffffffffffffffffffffffffffffffffff1681526020019250505060a06040518083038186803b158015610e3757600080fd5b505af4158015610e4b573d6000803e3d6000fd5b505050506040513d60a0811015610e6157600080fd5b508051602082015160408301516060840151608090940151929a91995097509195509350915050565b600073__ERC721Manager_________________________63c99af16760056040518263ffffffff167c01000000000000000000000000000000000000000000000000000000000281526004018082815260200191505060206040518083038186803b158015610ef857600080fd5b505af4158015610f0c573d6000803e3d6000fd5b505050506040513d6020811015610f2257600080fd5b5051905090565b610f31611d6b565b1515610f3c57600080fd5b604080517fbeec8005000000000000000000000000000000000000000000000000000000008152601260048201818152602483019384526044830185905273__GameDataLib___________________________9363beec800593879287929091606401848480828437820191505094505050505060006040518083038186803b158015610ca857600080fd5b610fd483838342612838565b604080517fa1c95b190000000000000000000000000000000000000000000000000000000081526005600482015273ffffffffffffffffffffffffffffffffffffffff80861660248301528416604482015260648101839052905173__ERC721Manager_________________________9163a1c95b19916084808301926000929190829003018186803b158015610d7257600080fd5b606073__GameDataLib___________________________63cbb5719f60126040518263ffffffff167c01000000000000000000000000000000000000000000000000000000000281526004018082815260200191505060006040518083038186803b1580156110d857600080fd5b505af41580156110ec573d6000803e3d6000fd5b505050506040513d6000823e601f3d9081017fffffffffffffffffffffffffffffffffffffffffffffffffffffffffffffffe0168201604052602081101561113357600080fd5b81019080805164010000000081111561114b57600080fd5b8201602081018481111561115e57600080fd5b815164010000000081118282018710171561117857600080fd5b509094505050505090565b604080517fdda88262000000000000000000000000000000000000000000000000000000008152601260048201526024810184905273ffffffffffffffffffffffffffffffffffffffff83166044820152905160009173__GameDataLib___________________________9163dda8826291606480820192602092909190829003018186803b15801561121557600080fd5b505af4158015611229573d6000803e3d6000fd5b505050506040513d602081101561123f57600080fd5b50519392505050565b604080517f90393a230000000000000000000000000000000000000000000000000000000081526005600482015273ffffffffffffffffffffffffffffffffffffffff8416602482015260448101839052905160009173__ERC721Manager_________________________916390393a2391606480820192602092909190829003018186803b15801561121557600080fd5b604080517f35925c5d0000000000000000000000000000000000000000000000000000000081526012600482015273ffffffffffffffffffffffffffffffffffffffff83166024820152905160609173__GameDataLib___________________________916335925c5d91604480820192600092909190829003018186803b15801561136557600080fd5b505af4158015611379573d6000803e3d6000fd5b505050506040513d6000823e601f3d9081017fffffffffffffffffffffffffffffffffffffffffffffffffffffffffffffffe016820160405260208110156113c057600080fd5b8101908080516401000000008111156113d857600080fd5b820160208101848111156113eb57600080fd5b815164010000000081118282018710171561140557600080fd5b50909695505050505050565b604080517f99b029140000000000000000000000000000000000000000000000000000000081526012600482015273ffffffffffffffffffffffffffffffffffffffff83166024820152905160009173__GameDataLib___________________________916399b0291491604480820192602092909190829003018186803b158015610abc57600080fd5b604080517f63a719ce0000000000000000000000000000000000000000000000000000000081526012600482015260ff8516602482015273ffffffffffffffffffffffffffffffffffffffff8416604482015260648101839052905160009173__GameDataLib___________________________916363a719ce91608480820192602092909190829003018186803b15801561153757600080fd5b505af415801561154b573d6000803e3d6000fd5b505050506040513d602081101561156157600080fd5b5051949350505050565b604080517f7f38af770000000000000000000000000000000000000000000000000000000081526012600482015260ff8416602482015260448101839052905160009173__GameDataLib___________________________91637f38af7791606480820192602092909190829003018186803b15801561121557600080fd5b6115f683838342612838565b604080517ff36f0d0e0000000000000000000000000000000000000000000000000000000081526005600482015273ffffffffffffffffffffffffffffffffffffffff80861660248301528416604482015260648101839052905173__ERC721Manager_________________________9163f36f0d0e916084808301926000929190829003018186803b158015610d7257600080fd5b604080517f0bbb61ba0000000000000000000000000000000000000000000000000000000081526005600482015233602482015260448101839052905160009173__ERC721Manager_________________________91630bbb61ba91606480820192602092909190829003018186803b15801561170857600080fd5b505af415801561171c573d6000803e3d6000fd5b505050506040513d602081101561173257600080fd5b5051151561173f57600080fd5b73__ERC721Manager_________________________63d271f3be6005846040518363ffffffff167c0100000000000000000000000000000000000000000000000000000000028152600401808381526020018281526020019250505060206040518083038186803b1580156117b357600080fd5b505af41580156117c7573d6000803e3d6000fd5b505050506040513d60208110156117dd57600080fd5b505190506117ee8160008442612838565b604080517f821141520000000000000000000000000000000000000000000000000000000081526005600482015273ffffffffffffffffffffffffffffffffffffffff8316602482015260448101849052905173__ERC721Manager_________________________916382114152916064808301926000929190829003018186803b158015610ca857600080fd5b604080517f0bbb61ba0000000000000000000000000000000000000000000000000000000081526005600482015273ffffffffffffffffffffffffffffffffffffffff8416602482015260448101839052905160009173__ERC721Manager_________________________91630bbb61ba91606480820192602092909190829003018186803b15801561121557600080fd5b600073__ERC721Manager_________________________63113e25a56005846040518363ffffffff167c0100000000000000000000000000000000000000000000000000000000028152600401808381526020018281526020019250505060206040518083038186803b158015610abc57600080fd5b600073__ERC721Manager_________________________637d79f2606005846040518363ffffffff167c0100000000000000000000000000000000000000000000000000000000028152600401808381526020018281526020019250505060206040518083038186803b158015610abc57600080fd5b604080517f7a5f52e00000000000000000000000000000000000000000000000000000000081526012600482015260ff8416602482015273ffffffffffffffffffffffffffffffffffffffff83166044820152905160009173__GameDataLib___________________________91637a5f52e091606480820192602092909190829003018186803b15801561121557600080fd5b60008060008073__GameDataLib___________________________63aa1526ca6012876040518363ffffffff167c0100000000000000000000000000000000000000000000000000000000028152600401808381526020018281526020019250505060806040518083038186803b158015611b0857600080fd5b505af4158015611b1c573d6000803e3d6000fd5b505050506040513d6080811015611b3257600080fd5b5080516020820151604083015160609093015191989097509195509350915050565b600073__ERC721Manager_________________________63d271f3be6005846040518363ffffffff167c0100000000000000000000000000000000000000000000000000000000028152600401808381526020018281526020019250505060206040518083038186803b158015610abc57600080fd5b604080517fe8d762fb0000000000000000000000000000000000000000000000000000000081526005600482015273ffffffffffffffffffffffffffffffffffffffff83166024820152905160009173__ERC721Manager_________________________9163e8d762fb91604480820192602092909190829003018186803b158015610abc57600080fd5b611c5d611d6b565b1515611c6857600080fd5b60115460405160009173ffffffffffffffffffffffffffffffffffffffff16907f8be0079c531659141344cd1fd0a4f28419497f9722a3daafe3b4186f6b6457e0908390a3601180547fffffffffffffffffffffffff0000000000000000000000000000000000000000169055565b604080517fe79f9d720000000000000000000000000000000000000000000000000000000081526012600482015260ff83166024820152905160009173__GameDataLib___________________________9163e79f9d7291604480820192602092909190829003018186803b158015610abc57600080fd5b60115473ffffffffffffffffffffffffffffffffffffffff1690565b60115473ffffffffffffffffffffffffffffffffffffffff16331490565b600b8054604080516020601f60027fffffffffffffffffffffffffffffffffffffffffffffffffffffffffffffffff610100600188161502019095169490940493840181900481028201810190925282815260609390929091830182828015610b9a5780601f10610b6f57610100808354040283529160200191610b9a565b604080517fca98c0d30000000000000000000000000000000000000000000000000000000081526005600482015273ffffffffffffffffffffffffffffffffffffffff841660248201528215156044820152905173__ERC721Manager_________________________9163ca98c0d3916064808301926000929190829003018186803b158015610ca857600080fd5b604080517fb7aa1b7500000000000000000000000000000000000000000000000000000000815260126004820152336024820181905267ffffffffffffffff808516604484015242166064830152915160009173__GameDataLib___________________________9163b7aa1b7591608480820192602092909190829003018186803b158015611f2657600080fd5b505af4158015611f3a573d6000803e3d6000fd5b505050506040513d6020811015611f5057600080fd5b5051604080517fcbfb410f0000000000000000000000000000000000000000000000000000000081526005600482015273ffffffffffffffffffffffffffffffffffffffff8516602482015260448101839052905191925073__ERC721Manager_________________________9163cbfb410f91606480820192600092909190829003018186803b158015610d7257600080fd5b60008060008073__GameDataLib___________________________63b45dcaef6012876040518363ffffffff167c0100000000000000000000000000000000000000000000000000000000028152600401808381526020018281526020019250505060806040518083038186803b158015611b0857600080fd5b61206a84848442612838565b73__ERC721Manager_________________________6301208f196005868686866040518663ffffffff167c0100000000000000000000000000000000000000000000000000000000028152600401808681526020018573ffffffffffffffffffffffffffffffffffffffff1673ffffffffffffffffffffffffffffffffffffffff1681526020018473ffffffffffffffffffffffffffffffffffffffff1673ffffffffffffffffffffffffffffffffffffffff16815260200183815260200180602001828103825283818151815260200191508051906020019080838360005b8381101561216257818101518382015260200161214a565b50505050905090810190601f16801561218f5780820380516001836020036101000a031916815260200191505b50965050505050505060006040518083038186803b1580156121b057600080fd5b505af41580156121c4573d6000803e3d6000fd5b5050505050505050565b6121d6611d6b565b15156121e157600080fd5b73__GameDataLib___________________________63cc1d741b6012898989898989896040518963ffffffff167c0100000000000000000000000000000000000000000000000000000000028152600401808981526020018861ffff1661ffff16815260200180602001806020018060200184810384528a8a82818152602001925080828437909101858103845288815260200190508888808284379091018581038352868152602001905086868082843782019150509b50505050505050505050505060006040518083038186803b1580156122bd57600080fd5b505af41580156122d1573d6000803e3d6000fd5b5050505050505050505050565b6060600160008381526014602052604090205460ff1660018111156122ff57fe5b14156124275773__GameDataLib___________________________63c3ce1b776012846040518363ffffffff167c0100000000000000000000000000000000000000000000000000000000028152600401808381526020018281526020019250505060006040518083038186803b15801561237957600080fd5b505af415801561238d573d6000803e3d6000fd5b505050506040513d6000823e601f3d9081017fffffffffffffffffffffffffffffffffffffffffffffffffffffffffffffffe016820160405260208110156123d457600080fd5b8101908080516401000000008111156123ec57600080fd5b820160208101848111156123ff57600080fd5b815164010000000081118282018710171561241957600080fd5b50909450610aeb9350505050565b604080517f3dfbd9f000000000000000000000000000000000000000000000000000000000815260126004820152600560248201526044810184905267ffffffffffffffff42166064820152905173__GameDataLib___________________________91633dfbd9f0916084808301926000929190829003018186803b15801561136557600080fd5b604080517f584492e30000000000000000000000000000000000000000000000000000000081526005600482015273ffffffffffffffffffffffffffffffffffffffff808516602483015283166044820152905160009173__ERC721Manager_________________________9163584492e391606480820192602092909190829003018186803b15801561121557600080fd5b600073__GameDataLib___________________________630127810160126040518263ffffffff167c01000000000000000000000000000000000000000000000000000000000281526004018082815260200191505060206040518083038186803b158015610ef857600080fd5b604080517f8969b9a90000000000000000000000000000000000000000000000000000000081526012600482015267ffffffffffffffff841660248201528215156044820152905160609173__GameDataLib___________________________91638969b9a991606480820192600092909190829003018186803b15801561263857600080fd5b505af415801561264c573d6000803e3d6000fd5b505050506040513d6000823e601f3d9081017fffffffffffffffffffffffffffffffffffffffffffffffffffffffffffffffe0168201604052602081101561269357600080fd5b8101908080516401000000008111156126ab57600080fd5b820160208101848111156126be57600080fd5b81516401000000008111828201871017156126d857600080fd5b5090979650505050505050565b604080517f03218a2e000000000000000000000000000000000000000000000000000000008152601260048201526024810184905273ffffffffffffffffffffffffffffffffffffffff83166044820152905160009173__GameDataLib___________________________916303218a2e91606480820192602092909190829003018186803b15801561121557600080fd5b61277f611d6b565b151561278a57600080fd5b61279381612a95565b50565b604080517f6c2d6326000000000000000000000000000000000000000000000000000000008152601260048201526024810184905273ffffffffffffffffffffffffffffffffffffffff8316604482015267ffffffffffffffff42166064820152905160009173__GameDataLib___________________________91636c2d632691608480820192602092909190829003018186803b15801561121557600080fd5b60008060008481526014602052604090205460ff16600181111561285857fe5b14156129df57604080517fc7a284a8000000000000000000000000000000000000000000000000000000008152601260048201526024810185905273ffffffffffffffffffffffffffffffffffffffff80881660448301528616606482015267ffffffffffffffff84166084820152905173__GameDataLib___________________________9163c7a284a89160a4808301926020929190829003018186803b15801561290457600080fd5b505af4158015612918573d6000803e3d6000fd5b505050506040513d602081101561292e57600080fd5b5051604080517fcbfb410f0000000000000000000000000000000000000000000000000000000081526005600482015273ffffffffffffffffffffffffffffffffffffffff8816602482015260448101839052905191925073__ERC721Manager_________________________9163cbfb410f91606480820192600092909190829003018186803b1580156129c257600080fd5b505af41580156129d6573d6000803e3d6000fd5b50505050612a8e565b604080517f3bbea88c000000000000000000000000000000000000000000000000000000008152601260048201526024810185905273ffffffffffffffffffffffffffffffffffffffff808816604483015286166064820152905173__GameDataLib___________________________91633bbea88c916084808301926000929190829003018186803b158015612a7557600080fd5b505af4158015612a89573d6000803e3d6000fd5b505050505b5050505050565b73ffffffffffffffffffffffffffffffffffffffff81161515612ab757600080fd5b60115460405173ffffffffffffffffffffffffffffffffffffffff8084169216907f8be0079c531659141344cd1fd0a4f28419497f9722a3daafe3b4186f6b6457e090600090a3601180547fffffffffffffffffffffffff00000000000000000000000000000000000000001673ffffffffffffffffffffffffffffffffffffffff929092169190911790555600a165627a7a7230582028b6dce9486c6f5466c1a701cfbd8972ba07cef56f558567266ffac68018cc320029",
  "source": "pragma solidity >=0.4.21 <0.6.0;\r\n\r\nimport \"../library/token/ERC721Token.sol\";\r\nimport \"../library/game/GameDataLib.sol\";\r\n\r\nimport \"openzeppelin-solidity/contracts/ownership/Ownable.sol\";\r\n\r\n/**\r\n * @title Main\r\n *\r\n * Main contract for LittleButterflies.  Implements the ERC721 EIP for Non-Fungible Tokens.\r\n */\r\ncontract Main is ERC721Token, Ownable {\r\n\r\n    GameDataLib.Data internal data;\r\n\r\n    // Set our token name and symbol\r\n    constructor() ERC721Token(\"LittleButterfly\", \"BFLY\") public {\r\n        // initialize PRNG values\r\n        data.seed.s0 = uint64(now);\r\n        data.seed.s1 = uint64(msg.sender);\r\n    }\r\n\r\n\r\n    /** Token viewer methods **/\r\n\r\n\r\n    /**\r\n     * @dev Gets game information associated with a specific butterfly.\r\n     * Requires ID to be a valid butterfly.\r\n     *\r\n     * @param butterflyId uint256 ID of butterfly being queried\r\n     *\r\n     * @return gene uint64\r\n     * @return createdTimestamp uint64\r\n     * @return lastTimestamp uint64\r\n     * @return numOwners uint160\r\n     */\r\n    function getButterflyInfo(uint256 butterflyId) public view returns (\r\n        uint64 gene,\r\n        uint64 createdTimestamp,\r\n        uint64 lastTimestamp,\r\n        uint160 numOwners\r\n    ) {\r\n       (gene, createdTimestamp, lastTimestamp, numOwners) = GameDataLib.getButterflyInfo(data, butterflyId);\r\n    }\r\n\r\n    /**\r\n     * @dev Returns the N-th owner associated with a butterfly.\r\n     * Requires ID to be a valid butterfly, and owner index to be smaller than the number of owners.\r\n     *\r\n     * @param butterflyId uint256 ID of butterfly being queried\r\n     * @param index uint160 Index of owner being queried\r\n     *\r\n     * @return address\r\n     */\r\n    function getButterflyOwnerByIndex(\r\n        uint256 butterflyId,\r\n        uint160 index\r\n    ) external view returns (address) {\r\n        return GameDataLib.getButterflyOwnerByIndex(data, butterflyId, index);\r\n    }\r\n\r\n\r\n    /**\r\n     * @dev Gets game information associated with a specific heart.\r\n     * Requires ID to be a valid heart.\r\n     *\r\n     * @param heartId uint256 ID of heart being queried\r\n     *\r\n     * @return butterflyId uint256\r\n     * @return gene uint64\r\n     * @return snapshotTimestamp uint64\r\n     * @return numOwners uint160\r\n     */\r\n    function getHeartInfo(uint256 heartId) public view returns (\r\n        uint256 butterflyId,\r\n        uint64 gene,\r\n        uint64 snapshotTimestamp,\r\n        uint160 numOwners\r\n    ) {\r\n        (butterflyId, gene, snapshotTimestamp, numOwners) = GameDataLib.getHeartInfo(data, heartId);\r\n    }\r\n\r\n    /**\r\n     * @dev Returns the N-th owner associated with a heart's snapshot.\r\n     * Requires ID to be a valid butterfly, and owner index to be smaller than the number of owners.\r\n     *\r\n     * @param heartId uint256 ID of heart being queried\r\n     * @param index uint160 Index of owner being queried\r\n     *\r\n     * @return address\r\n     */\r\n    function getHeartOwnerByIndex(\r\n        uint256 heartId,\r\n        uint160 index\r\n    ) external view returns (address) {\r\n        return GameDataLib.getHeartOwnerByIndex(data, heartId, index);\r\n    }\r\n\r\n\r\n    /**\r\n     * @dev Gets game information associated with a specific flower.\r\n     *\r\n     * @param flowerAddress address Address of the flower being queried\r\n     *\r\n     * @return isClaimed bool\r\n     * @return gene uint64\r\n     * @return gardenTimezone uint64\r\n     * @return createdTimestamp uint64\r\n     * @return flowerIndex uint160\r\n     */\r\n    function getFlowerInfo(\r\n        address flowerAddress\r\n    ) external view returns (\r\n        bool isClaimed,\r\n        uint64 gene,\r\n        uint64 gardenTimezone,\r\n        uint64 createdTimestamp,\r\n        uint160 flowerIndex\r\n    ) {\r\n        (isClaimed, gene, gardenTimezone, createdTimestamp, flowerIndex) = GameDataLib.getFlowerInfo(data, flowerAddress);\r\n    }\r\n\r\n\r\n    /**\r\n     * @dev Determines whether the game logic allows a transfer of a butterfly to another address.\r\n     * Conditions:\r\n     * - The receiver address must have already claimed a butterfly\r\n     * - The butterfly's last timestamp is within the last 24 hours\r\n     * - The receiver address must have never claimed *this* butterfly\r\n     *\r\n     * @param butterflyId uint256 ID of butterfly being queried\r\n     * @param receiver address Address of potential receiver\r\n     */\r\n    function canReceiveButterfly(\r\n        uint256 butterflyId,\r\n        address receiver\r\n    ) external view returns (bool) {\r\n        return GameDataLib.canReceiveButterfly(data, butterflyId, receiver, uint64(now));\r\n    }\r\n\r\n\r\n    /** Override token methods **/\r\n\r\n    /**\r\n     * @dev Override the default ERC721 transferFrom implementation in order to check game conditions and\r\n     * generate side effects\r\n     */\r\n    function transferFrom(address _from, address _to, uint256 _tokenId) public {\r\n        _setupTransferFrom(_from, _to, _tokenId, uint64(now));\r\n        ERC721Manager.transferFrom(erc721Data, _from, _to, _tokenId);\r\n    }\r\n\r\n    /**\r\n     * @dev Override the default ERC721 safeTransferFrom implementation in order to check game conditions and\r\n     * generate side effects\r\n     */\r\n    function safeTransferFrom(address _from, address _to, uint256 _tokenId) public {\r\n        _setupTransferFrom(_from, _to, _tokenId, uint64(now));\r\n        ERC721Manager.safeTransferFrom(erc721Data, _from, _to, _tokenId);\r\n    }\r\n\r\n    /**\r\n     * @dev Override the default ERC721 safeTransferFrom implementation in order to check game conditions and\r\n     * generate side effects\r\n     */\r\n    function safeTransferFrom(\r\n        address _from,\r\n        address _to,\r\n        uint256 _tokenId,\r\n        bytes _data\r\n    ) public {\r\n        _setupTransferFrom(_from, _to, _tokenId, uint64(now));\r\n        ERC721Manager.safeTransferFrom(erc721Data, _from, _to, _tokenId, _data);\r\n    }\r\n\r\n\r\n    /**\r\n    * @dev Execute before transfer, preventing token transfer in some circumstances.\r\n    * Requirements:\r\n    *  - Caller is owner, approved, or operator for the token\r\n    *  - To has claimed a token before\r\n    *  - Token is a Heart, or Token's last activity was in the last 24 hours\r\n    *\r\n    * @param from current owner of the token\r\n    * @param to address to receive the ownership of the given token ID\r\n    * @param tokenId uint256 ID of the token to be transferred\r\n    * @param currentTimestamp uint64\r\n    */\r\n    function _setupTransferFrom(\r\n        address from,\r\n        address to,\r\n        uint256 tokenId,\r\n        uint64 currentTimestamp\r\n    ) private {\r\n        if (data.tokenToType[tokenId] == GameDataLib.TokenType.Butterfly) {\r\n            // try to do transfer and mint a heart\r\n            uint256 heartId = GameDataLib.transferButterfly(data, tokenId, from, to, currentTimestamp);\r\n            ERC721Manager.mint(erc721Data, from, heartId);\r\n        } else {\r\n            GameDataLib.transferHeart(data, tokenId, from, to);\r\n        }\r\n    }\r\n\r\n    /**\r\n     * @dev Overrides the default tokenURI method to lookup from the stored table of URIs -- rather than\r\n     * storing a copy of the URI for each instance\r\n     *\r\n     * @param _tokenId uint256\r\n     * @return string\r\n     */\r\n    function tokenURI(uint256 _tokenId) public view returns (string) {\r\n        if (data.tokenToType[_tokenId] == GameDataLib.TokenType.Heart) {\r\n            return GameDataLib.getHeartURI(data, _tokenId);\r\n        }\r\n        return GameDataLib.getButterflyURI(data, erc721Data, _tokenId, uint64(now));\r\n    }\r\n\r\n    /**\r\n     * @dev Returns the URI mapped to a particular account / flower\r\n     *\r\n     * @param accountAddress address\r\n     * @return string\r\n     */\r\n    function accountURI(address accountAddress) public view returns (string) {\r\n        return GameDataLib.getFlowerURI(data, accountAddress);\r\n    }\r\n\r\n    /**\r\n     * @dev Returns the URI mapped to account 0\r\n     *\r\n     * @return string\r\n     */\r\n    function accountZeroURI() public view returns (string) {\r\n        return GameDataLib.getWhiteFlowerURI(data);\r\n    }\r\n\r\n    /**\r\n     * @dev Returns the URI for a particular butterfly gene -- useful for seeing the butterfly \"as it was\"\r\n     * when it dropped a heart\r\n     *\r\n     * @param gene uint64\r\n     * @param isAlive bool\r\n     * @return string\r\n     */\r\n    function getButterflyURIFromGene(uint64 gene, bool isAlive) public view returns (string) {\r\n        return GameDataLib.getButterflyURIFromGene(data, gene, isAlive);\r\n    }\r\n\r\n\r\n    /** Extra token methods **/\r\n\r\n    /**\r\n     * @dev Claims a flower and an initial butterfly for a given address.\r\n     * Requires address to have not claimed previously\r\n     *\r\n     * @param gardenTimezone uint64\r\n     */\r\n    function claim(uint64 gardenTimezone) external {\r\n        address claimer = msg.sender;\r\n\r\n        // claim a butterfly\r\n        uint256 butterflyId = GameDataLib.claim(data, claimer, gardenTimezone, uint64(now));\r\n\r\n        // mint its token\r\n        ERC721Manager.mint(erc721Data, claimer, butterflyId);\r\n    }\r\n\r\n    /**\r\n     * @dev Burns a token.  Caller must be owner or approved.\r\n     *\r\n     * @param _tokenId uint256 ID of token to burn\r\n     */\r\n    function burn(uint256 _tokenId) public {\r\n        require(ERC721Manager.isApprovedOrOwner(erc721Data, msg.sender, _tokenId));\r\n\r\n        address _owner = ERC721Manager.ownerOf(erc721Data, _tokenId);\r\n\r\n        _setupTransferFrom(_owner, address(0x0), _tokenId, uint64(now));\r\n        ERC721Manager.burn(erc721Data, _owner, _tokenId);\r\n    }\r\n\r\n\r\n\r\n    /**\r\n     * @dev Returns the total number of tokens for a given type, owned by a specific address\r\n     *\r\n     * @param tokenType uint8\r\n     * @param _owner address\r\n     *\r\n     * @return uint256\r\n     */\r\n    function typedBalanceOf(uint8 tokenType, address _owner) public view returns (uint256) {\r\n        return GameDataLib.typedBalanceOf(data, tokenType, _owner);\r\n    }\r\n\r\n    /**\r\n     * @dev Returns the total number of tokens for a given type\r\n     *\r\n     * @param tokenType uint8\r\n     *\r\n     * @return uint256\r\n     */\r\n    function typedTotalSupply(uint8 tokenType) public view returns (uint256) {\r\n        return GameDataLib.typedTotalSupply(data, tokenType);\r\n    }\r\n\r\n\r\n    /**\r\n     * @dev Returns the I-th token of a specific type owned by an index\r\n     *\r\n     * @param tokenType uint8\r\n     * @param _owner address\r\n     * @param _index uint256\r\n     *\r\n     * @return uint256\r\n     */\r\n    function typedTokenOfOwnerByIndex(\r\n        uint8 tokenType,\r\n        address _owner,\r\n        uint256 _index\r\n    ) external view returns (uint256) {\r\n        return GameDataLib.typedTokenOfOwnerByIndex(data, tokenType, _owner, _index);\r\n    }\r\n\r\n    /**\r\n     * @dev Returns the I-th token of a specific type\r\n     *\r\n     * @param tokenType uint8\r\n     * @param _index uint256\r\n     *\r\n     * @return uint256\r\n     */\r\n    function typedTokenByIndex(\r\n        uint8 tokenType,\r\n        uint256 _index\r\n    ) external view returns (uint256) {\r\n        return GameDataLib.typedTokenByIndex(data, tokenType, _index);\r\n    }\r\n\r\n    /**\r\n     * @dev Gets the total number of claimed flowers\r\n     *\r\n     * @return uint160\r\n     */\r\n    function totalFlowers() external view returns (uint160) {\r\n        return GameDataLib.totalFlowers(data);\r\n    }\r\n\r\n    /**\r\n     * @dev Gets the address of the N-th flower\r\n     *\r\n     * @return address\r\n     */\r\n    function getFlowerByIndex(uint160 index) external view returns (address) {\r\n        return GameDataLib.getFlowerByIndex(data, index);\r\n    }\r\n\r\n\r\n    /** Admin setup methods */\r\n\r\n    /*\r\n    * Methods intended for initial contract setup, to be called at deployment.\r\n    * Call renounceOwnership() to make the contract have no owner after setup is complete.\r\n    */\r\n\r\n    /**\r\n     * @dev Registers a new flower URI with the corresponding weight\r\n     *\r\n     * @param weight uint16 Relative weight for the occurrence of this URI\r\n     * @param uri string\r\n     */\r\n    function addFlowerURI(uint16 weight, string uri) external onlyOwner {\r\n        GameDataLib.addFlowerURI(data, weight, uri);\r\n    }\r\n\r\n    /**\r\n     * @dev Registers the flower URI for address 0\r\n     *\r\n     * @param uri string\r\n     */\r\n    function setWhiteFlowerURI(string uri) external onlyOwner {\r\n        GameDataLib.setWhiteFlowerURI(data, uri);\r\n    }\r\n\r\n    /**\r\n     * @dev Registers a new butterfly URI with the corresponding weight\r\n     *\r\n     * @param weight uint16 Relative weight for the occurrence of this URI\r\n     * @param liveUri string\r\n     * @param deadUri string\r\n     * @param heartUri string\r\n     */\r\n    function addButterflyURI(uint16 weight, string liveUri, string deadUri, string heartUri) external onlyOwner {\r\n        GameDataLib.addButterflyURI(data, weight, liveUri, deadUri, heartUri);\r\n    }\r\n\r\n}\r\n",
  "sourcePath": "C:/Users/telmo/Documents/solidity/butterfly/contracts/game/Main.sol",
  "compiler": {
    "name": "solc",
    "version": "0.4.24+commit.e67f0147.Emscripten.clang"
  },
  "schemaVersion": "3.0.0",
  "updatedAt": "2019-02-12T16:49:10.021Z",
  "devdoc": {
    "methods": {
      "accountURI(address)": {
        "details": "Returns the URI mapped to a particular account / flower\r ",
        "params": {
          "accountAddress": "address\r"
        },
        "return": "string\r"
      },
      "accountZeroURI()": {
        "details": "Returns the URI mapped to account 0\r ",
        "return": "string\r"
      },
      "addButterflyURI(uint16,string,string,string)": {
        "details": "Registers a new butterfly URI with the corresponding weight\r ",
        "params": {
          "deadUri": "string\r",
          "heartUri": "string\r",
          "liveUri": "string\r",
          "weight": "uint16 Relative weight for the occurrence of this URI\r"
        }
      },
      "addFlowerURI(uint16,string)": {
        "details": "Registers a new flower URI with the corresponding weight\r ",
        "params": {
          "uri": "string\r",
          "weight": "uint16 Relative weight for the occurrence of this URI\r"
        }
      },
      "burn(uint256)": {
        "details": "Burns a token.  Caller must be owner or approved.\r ",
        "params": {
          "_tokenId": "uint256 ID of token to burn\r"
        }
      },
      "canReceiveButterfly(uint256,address)": {
        "details": "Determines whether the game logic allows a transfer of a butterfly to another address.\r Conditions:\r - The receiver address must have already claimed a butterfly\r - The butterfly's last timestamp is within the last 24 hours\r - The receiver address must have never claimed *this* butterfly\r ",
        "params": {
          "butterflyId": "uint256 ID of butterfly being queried\r",
          "receiver": "address Address of potential receiver\r"
        }
      },
      "claim(uint64)": {
        "details": "Claims a flower and an initial butterfly for a given address.\r Requires address to have not claimed previously\r ",
        "params": {
          "gardenTimezone": "uint64\r"
        }
      },
      "getButterflyInfo(uint256)": {
        "details": "Gets game information associated with a specific butterfly.\r Requires ID to be a valid butterfly.\r ",
        "params": {
          "butterflyId": "uint256 ID of butterfly being queried\r "
        },
        "return": "gene uint64\rcreatedTimestamp uint64\rlastTimestamp uint64\rnumOwners uint160\r"
      },
      "getButterflyOwnerByIndex(uint256,uint160)": {
        "details": "Returns the N-th owner associated with a butterfly.\r Requires ID to be a valid butterfly, and owner index to be smaller than the number of owners.\r ",
        "params": {
          "butterflyId": "uint256 ID of butterfly being queried\r",
          "index": "uint160 Index of owner being queried\r "
        },
        "return": "address\r"
      },
      "getButterflyURIFromGene(uint64,bool)": {
        "details": "Returns the URI for a particular butterfly gene -- useful for seeing the butterfly \"as it was\"\r when it dropped a heart\r ",
        "params": {
          "gene": "uint64\r",
          "isAlive": "bool\r"
        },
        "return": "string\r"
      },
      "getFlowerByIndex(uint160)": {
        "details": "Gets the address of the N-th flower\r ",
        "return": "address\r"
      },
      "getFlowerInfo(address)": {
        "details": "Gets game information associated with a specific flower.\r ",
        "params": {
          "flowerAddress": "address Address of the flower being queried\r "
        },
        "return": "isClaimed bool\rgene uint64\rgardenTimezone uint64\rcreatedTimestamp uint64\rflowerIndex uint160\r"
      },
      "getHeartInfo(uint256)": {
        "details": "Gets game information associated with a specific heart.\r Requires ID to be a valid heart.\r ",
        "params": {
          "heartId": "uint256 ID of heart being queried\r "
        },
        "return": "butterflyId uint256\rgene uint64\rsnapshotTimestamp uint64\rnumOwners uint160\r"
      },
      "getHeartOwnerByIndex(uint256,uint160)": {
        "details": "Returns the N-th owner associated with a heart's snapshot.\r Requires ID to be a valid butterfly, and owner index to be smaller than the number of owners.\r ",
        "params": {
          "heartId": "uint256 ID of heart being queried\r",
          "index": "uint160 Index of owner being queried\r "
        },
        "return": "address\r"
      },
      "isOwner()": {
        "return": "true if `msg.sender` is the owner of the contract."
      },
      "owner()": {
        "return": "the address of the owner."
      },
      "renounceOwnership()": {
        "details": "Allows the current owner to relinquish control of the contract."
      },
      "safeTransferFrom(address,address,uint256)": {
        "details": "Override the default ERC721 safeTransferFrom implementation in order to check game conditions and\r generate side effects\r"
      },
      "safeTransferFrom(address,address,uint256,bytes)": {
        "details": "Override the default ERC721 safeTransferFrom implementation in order to check game conditions and\r generate side effects\r"
      },
      "setWhiteFlowerURI(string)": {
        "details": "Registers the flower URI for address 0\r ",
        "params": {
          "uri": "string\r"
        }
      },
      "tokenURI(uint256)": {
        "details": "Overrides the default tokenURI method to lookup from the stored table of URIs -- rather than\r storing a copy of the URI for each instance\r ",
        "params": {
          "_tokenId": "uint256\r"
        },
        "return": "string\r"
      },
      "totalFlowers()": {
        "details": "Gets the total number of claimed flowers\r ",
        "return": "uint160\r"
      },
      "transferFrom(address,address,uint256)": {
        "details": "Override the default ERC721 transferFrom implementation in order to check game conditions and\r generate side effects\r"
      },
      "transferOwnership(address)": {
        "details": "Allows the current owner to transfer control of the contract to a newOwner.",
        "params": {
          "newOwner": "The address to transfer ownership to."
        }
      },
      "typedBalanceOf(uint8,address)": {
        "details": "Returns the total number of tokens for a given type, owned by a specific address\r ",
        "params": {
          "_owner": "address\r ",
          "tokenType": "uint8\r"
        },
        "return": "uint256\r"
      },
      "typedTokenByIndex(uint8,uint256)": {
        "details": "Returns the I-th token of a specific type\r ",
        "params": {
          "_index": "uint256\r ",
          "tokenType": "uint8\r"
        },
        "return": "uint256\r"
      },
      "typedTokenOfOwnerByIndex(uint8,address,uint256)": {
        "details": "Returns the I-th token of a specific type owned by an index\r ",
        "params": {
          "_index": "uint256\r ",
          "_owner": "address\r",
          "tokenType": "uint8\r"
        },
        "return": "uint256\r"
      },
      "typedTotalSupply(uint8)": {
        "details": "Returns the total number of tokens for a given type\r ",
        "params": {
          "tokenType": "uint8\r "
        },
        "return": "uint256\r"
      }
    },
    "title": "Main\r  * Main contract for LittleButterflies.  Implements the ERC721 EIP for Non-Fungible Tokens.\r"
  },
  "userdoc": {
    "methods": {
      "renounceOwnership()": {
        "notice": "Renouncing to ownership will leave the contract without an owner. It will not be possible to call the functions with the `onlyOwner` modifier anymore."
      }
    }
  }
}